:020000040800F2
:10000000000002203D0B0008250A00082D0A000808
:10001000350A00083D0A0008450A000800000000F3
:100020000000000000000000000000004D0A000871
:100030005B0A000800000000690A0008770A00084F
:100040008D0B00088D0B00088D0B00088D0B000830
:100050008D0B00088D0B00088D0B00088D0B000820
:100060008D0B00088D0B00088D0B00088D0B000810
:100070008D0B00088D0B00088D0B00088D0B000800
:100080008D0B00088D0B00088D0B00088D0B0008F0
:100090008D0B00088D0B00088D0B00088D0B0008E0
:1000A0008D0B00088D0B00088D0B00088D0B0008D0
:1000B0008D0B00088D0B00088D0B00088D0B0008C0
:1000C0008D0B00088D0B00088D0B0008850A0008B9
:1000D000990A00088D0B00088D0B00088D0B000895
:1000E0008D0B00088D0B00088D0B00088D0B000890
:1000F0008D0B00088D0B00088D0B00088D0B000880
:100100008D0B00088D0B00088D0B00088D0B00086F
:100110008D0B00088D0B00088D0B00088D0B00085F
:100120008D0B00088D0B00088D0B00088D0B00084F
:100130008D0B00088D0B00088D0B00088D0B00083F
:100140008D0B00088D0B00088D0B00088D0B00082F
:100150008D0B00088D0B00088D0B00088D0B00081F
:100160008D0B00088D0B00088D0B00088D0B00080F
:100170008D0B00088D0B00088D0B0008000000009F
:080180008D0B00088D0B000837
:1001900010B5054C237833B9044B13B10448AFF3C1
:1001A00000800123237010BD5C00002000000000CF
:1001B0009C32000808B5034B1BB103490348AFF359
:1001C000008008BD00000000600000209C32000894
:1001D00001F0FF01102A2BDB10F0070F08D010F8F8
:1001E000013B013A8B422DD010F0070F42B3F6D1FC
:1001F000F0B441EA012141EA014122F007047FF015
:1002000000070023F0E80256083C85EA010586EA6B
:10021000010685FA47F5A3FA87F586FA47F6A5FAA7
:1002200087F68EB9EED1F0BC01F0FF0102F00702B3
:1002300032B110F8013B013A83EA010313B1F8D15E
:100240000020704701387047002D06BF354603383F
:10025000073815F0010F07D1013015F4807F02BF78
:10026000013015F4C03F0130F0BC0138704700BFC9
:1002700053B94AB9002908BF00281CBF4FF0FF310D
:100280004FF0FF3000F088B9ADF1080C6DE904CEF5
:1002900000F006F8DDF804E0DDE9022304B0704761
:1002A0002DE9F047089D8E4604468846002B4AD12A
:1002B0008A42174662D9B2FA82F64EB1C6F12003DD
:1002C00001FA06F820FA03F3B74043EA0808B440FD
:1002D0004FEA174E1FFA87FCB8FBFEF1230C0EFB0A
:1002E000118843EA084301FB0CF29A4209D9FB1832
:1002F00001F1FF3080F0EA809A4240F2E780023953
:100300003B449A1AA3B2B2FBFEF00EFB102243EA62
:10031000024300FB0CFC9C4509D9FB1800F1FF329D
:1003200080F0D6809C4540F2D3803B44023840EABE
:100330000140A3EB0C0300211DB1F3400022C5E9ED
:100340000032BDE8F0878B4205D90DB1C5E9000147
:1003500000210846F5E7B3FA83F1002946D1734539
:1003600002D3824200F20581841A6EEB030201205F
:100370009046002DE5D0C5E90048E2E7002A00F0EC
:100380009080B2FA82F6002E40F0A4808A1A030C04
:100390004FEA174E80B2BCB20121B2FBFEFC0EFB4D
:1003A0001C2243EA024304FB0CF29A4207D9FB18D1
:1003B0000CF1FF3802D29A4200F2E080C4469B1A48
:1003C000B3FBFEF20EFB123340EA034302FB04F4DC
:1003D0009C4207D9FB1802F1FF3002D29C4200F286
:1003E000CA8002461B1B42EA0C40A5E7C1F1200669
:1003F0008B4022FA06F71F430EFA01F420FA06F3A7
:100400002EFA06FE4FEA1749234300FA01F81FFAB5
:1004100087FCBEFBF9F01C0C09FB10EE44EA0E440D
:1004200000FB0CFEA64502FA01F209D93C1900F1C5
:10043000FF3A80F09C80A64540F2998002383C4407
:10044000A4EB0E041FFA83FEB4FBF9F309FB13447B
:100450004EEA044403FB0CFCA44508D93C1903F103
:10046000FF3E80F08280A4457FD9023B3C4443EAB2
:100470000040A4EB0C04A0FB02EC64457346E1468B
:1004800062D35FD05DB1B8EB030264EB090404FAF8
:1004900006F622FA01F31E43CC40C5E900640021B0
:1004A0004FE7B1FBF2FC010C41EA0E4180B240EA99
:1004B00001423B4638463C46B846BE462026B1FB84
:1004C000F7F1A2EB080241EA0C4166E7014618E7A2
:1004D00010462CE7C6F120022EFA02F3B740B140D5
:1004E00020FA02F24FEA174E0A43B3FBFEF8BCB201
:1004F0000EFB1833110C41EA034108FB04F9B0402C
:1005000089454FEA104380B23ED9791808F1FF3C83
:1005100001D289451FD8A1EB0901B1FBFEF909FB06
:1005200004F80EFB191192B242EA0142424529D267
:10053000BA1809F1FF31C4D24245C2D2A9F1020171
:100540003A44BEE7F0459DD2BEEB02036CEB070CCC
:100550000138E14696E7A7EB09094944A8F1020CE6
:10056000B1FBFEF909FB04F8DBE773467FE7504671
:1005700066E70846FDE63B44023A33E7ACF1020C7D
:100580003B441CE749469CE7A1EB0901C446B1FB8B
:10059000FEF909FB04F8C4E7704700BF80B582B0DC
:1005A00000AF78607B681B68054A934204D114222F
:1005B0000449054801F084FC00BF0837BD4680BDF2
:1005C000003800408C000020FC00002080B500AF07
:1005D00000F0DEFA00F032F800F002F900F098F8CE
:1005E00000F0CCF814220F490F4801F069FC0F4BC2
:1005F0001B781A460E490F4802F0B0F94FF0FF334E
:1006000014220C490C4801F016FB084B1B780133EF
:10061000DAB2064B1A704FF47A7000F02BFB00BF71
:10062000E5E700BF8C000020FC000020A0000020B7
:10063000B432000878000020A400002080B594B0F7
:1006400000AF07F1200330220021184602F0A8F97C
:1006500007F10C0300221A605A609A60DA601A618E
:100660000023BB60284B1B6C274A43F08053136464
:10067000254B1B6C03F08053BB60BB6800237B6081
:10068000224B1B68214A43F4804313601F4B1B68B5
:1006900003F480437B607B6802233B620123FB629F
:1006A00010233B630223BB630023FB6308233B64EB
:1006B000A8237B640223BB640423FB6407F12003AB
:1006C000184600F0CBFD0346002B01D000F0CCF81B
:1006D0000F23FB6002233B6100237B614FF4A05397
:1006E000BB614FF48053FB6107F10C0305211846F1
:1006F00001F02CF80346002B01D000F0B5F800BF44
:100700005037BD4680BD00BF003802400070004039
:1007100080B500AF174B184A1A60164B4FF482721F
:100720005A60144B00229A60124B0022DA60114B7F
:1007300000221A610F4B00225A610E4B4FF48022A7
:100740009A610C4B1022DA610A4B00221A62094BA3
:1007500000225A62074B00229A62064B0A22DA6292
:10076000044801F0DFF90346002B01D000F07CF8CB
:1007700000BF80BDA40000200030014080B500AF64
:10078000154B164A1A60144B00225A60124B002275
:100790009A60114B0022DA600F4B00221A610E4B57
:1007A00000225A610C4B00229A610B4B00221A6204
:1007B000094B00225A62084B00229A62064B0A2219
:1007C000DA62054801F0AEF90346002B01D000F0D3
:1007D0004BF800BF80BD00BFFC0000200038004087
:1007E00080B485B000AF0023FB601E4B1B6B1D4A1D
:1007F00043F0800313631B4B1B6B03F08003FB6010
:10080000FB680023BB60174B1B6B164A43F00403C5
:100810001363144B1B6B03F00403BB60BB68002322
:100820007B60104B1B6B0F4A43F0010313630D4BAE
:100830001B6B03F001037B607B6800233B60094B6B
:100840001B6B084A43F002031363064B1B6B03F058
:1008500002033B603B6800BF1437BD465DF8047B74
:10086000704700BF0038024080B400AF72B600BFCE
:1008700000BFFDE780B483B000AF00237B60104B66
:100880005B6C0F4A43F4804353640D4B5B6C03F481
:1008900080437B607B6800233B60094B1B6C084AEC
:1008A00043F080531364064B1B6C03F080533B6092
:1008B0003B6800BF0C37BD465DF8047B704700BF46
:1008C0000038024080B58CB000AF786007F11C039F
:1008D00000221A605A609A60DA601A617B681B68AD
:1008E0004A4A934235D10023BB61494B5B6C484A6D
:1008F00043F480535364464B5B6C03F48053BB61F9
:10090000BB6900237B61424B1B6B414A43F00103EF
:1009100013633F4B1B6B03F001037B617B6948F260
:10092000E003FB6102233B6200237B620323BB6283
:100930000523FB6207F11C031946364800F0F2FA62
:1009400000220021232000F094FA232000F0ADFAC9
:1009500057E07B681B68304A934252D100233B61C9
:100960002B4B1B6C2A4A43F480431364284B1B6CAB
:1009700003F480433B613B690023FB60244B1B6B0A
:10098000234A43F004031363214B1B6B03F004035E
:10099000FB60FB680023BB601D4B1B6B1C4A43F0D4
:1009A000020313631A4B1B6B03F00203BB60BB68AB
:1009B0000C23FB6102233B6200237B620323BB62A7
:1009C0000523FB6207F11C031946144800F0AAFA3C
:1009D0004FF4A053FB6102233B6200237B6203239D
:1009E000BB620523FB6207F11C0319460C4800F0AB
:1009F00099FA00220021242000F03BFA242000F084
:100A000054FA00BF3037BD4680BD00BF0030014002
:100A10000038024000000240003800400008024058
:100A20000004024080B400AF00BFFDE780B400AF17
:100A300000BFFDE780B400AF00BFFDE780B400AFAA
:100A400000BFFDE780B400AF00BFFDE780B400AF9A
:100A500000BFBD465DF8047B704780B400AF00BFA7
:100A6000BD465DF8047B704780B400AF00BFBD4653
:100A70005DF8047B704780B500AF00F0DBF800BF85
:100A800080BD000080B500AF024801F03FFB00BF11
:100A900080BD00BFA400002080B500AF024801F077
:100AA00035FB00BF80BD00BFFC00002080B586B0D4
:100AB00000AF7860144A154BD31A7B617B693B61A8
:100AC000134B1B68002B02D1114B124A1A60104BBA
:100AD0001A687B6813443A699A4207D201F068FFAA
:100AE00003460C221A604FF0FF3309E0084B1B68E5
:100AF000FB60074B1A687B681344054A1360FB6868
:100B000018461837BD4680BD0000022000040000D2
:100B100054010020A802002080B400AF064BD3F897
:100B20008830054A43F47003C2F8883000BFBD46E0
:100B30005DF8047B704700BF00ED00E0DFF834D0C3
:100B4000FFF7EAFF0C480D490D4A002302E0D45894
:100B5000C4500433C4188C42F9D30A4A0A4C002307
:100B600001E013600432A242FBD301F027FFFFF73C
:100B70002DFD704700000220000000205C000020D6
:100B8000183300085C000020A4020020FEE70000EB
:100B900080B500AF0E4B1B680D4A43F40073136021
:100BA0000B4B1B680A4A43F480631360084B1B68B5
:100BB000074A43F480731360032000F04FF90F20BD
:100BC00000F008F8FFF756FE0023184680BD00BF6E
:100BD000003C024080B582B000AF7860124B1A68CA
:100BE000124B1B7819464FF47A73B3FBF1F3B2FB47
:100BF000F3F3184600F067F90346002B01D00123F8
:100C00000EE07B680F2B0AD8002279684FF0FF3086
:100C100000F02FF9064A7B681360002300E00123EF
:100C200018460837BD4680BD00000020080000209F
:100C30000400002080B400AF064B1B781A46064B18
:100C40001B681344044A136000BFBD465DF8047B73
:100C5000704700BF080000205801002080B400AF9A
:100C6000034B1B681846BD465DF8047B704700BF08
:100C70005801002080B584B000AF7860FFF7EEFF28
:100C8000B8607B68FB60FB68B3F1FF3F05D00A4B9F
:100C90001B781A46FB681344FB6000BFFFF7DEFFBA
:100CA0000246BB68D31AFA689A42F7D800BF00BF61
:100CB0001037BD4680BD00BF0800002080B485B05D
:100CC00000AF78607B6803F00703FB600C4BDB68C8
:100CD000BB60BA684FF6FF031340BB60FB681A02A3
:100CE000BB68134343F0BF6343F40033BB60044A63
:100CF000BB68D36000BF1437BD465DF8047B704706
:100D000000ED00E080B400AF044BDB681B0A03F089
:100D100007031846BD465DF8047B704700ED00E010
:100D200080B483B000AF0346FB7197F90730002B06
:100D30000BDBFB7903F01F02074997F907305B09CA
:100D4000012000FA02F241F8232000BF0C37BD4613
:100D50005DF8047B704700BF00E100E080B483B021
:100D600000AF03463960FB7197F90730002B0ADBAF
:100D70003B68DAB20C4997F907301201D2B20B4442
:100D800083F800230AE03B68DAB20849FB7903F0F4
:100D90000F03043B1201D2B20B441A7600BF0C378A
:100DA000BD465DF8047B704700E100E000ED00E027
:100DB00080B489B000AFF860B9607A60FB6803F076
:100DC0000703FB61FB69C3F10703042B28BF04235E
:100DD000BB61FB690433062B02D9FB69033B00E0CE
:100DE00000237B614FF0FF32BB6902FA03F3DA4361
:100DF000BB681A407B699A404FF0FF317B6901FA6A
:100E000003F3D9437B680B40134318462437BD4690
:100E10005DF8047B7047000080B582B000AF786059
:100E20007B68013BB3F1807F01D301230FE00A4AC5
:100E30007B68013B53600F214FF0FF30FFF78EFFBF
:100E4000054B00229A60044B07221A6000231846C3
:100E50000837BD4680BD00BF10E000E080B582B01D
:100E600000AF78607868FFF729FF00BF0837BD46FC
:100E700080BD80B586B000AF0346B9607A60FB7371
:100E800000237B61FFF73EFF78617A68B968786973
:100E9000FFF78EFF024697F90F3011461846FFF70D
:100EA0005DFF00BF1837BD4680BD80B582B000AF82
:100EB0000346FB7197F907301846FFF731FF00BF73
:100EC0000837BD4680BD80B582B000AF78607868D5
:100ED000FFF7A2FF034618460837BD4680BD80B421
:100EE00083B000AF78607B6893F83530DBB2022BBB
:100EF00004D07B6880225A6501230CE07B680522C0
:100F000083F835207B681B681A687B681B6822F0B1
:100F100001021A60002318460C37BD465DF8047BB9
:100F20007047000080B489B000AF7860396000235A
:100F30007B6100233B610023BB610023FB616BE10C
:100F40000122FB6902FA03F37B613B681B687A6943
:100F500013403B613A697B699A4240F05A813B6891
:100F60005B6803F00303012B05D03B685B6803F06B
:100F70000303022B30D17B689B68BB61FB695B007C
:100F8000032202FA03F3DB43BA691340BB613B68F7
:100F9000DA68FB695B0002FA03F3BA691343BB61C9
:100FA0007B68BA699A607B685B68BB610122FB69F8
:100FB00002FA03F3DB43BA691340BB613B685B6829
:100FC0001B0903F00102FB6902FA03F3BA69134338
:100FD000BB617B68BA695A603B685B6803F00303D6
:100FE000032B17D07B68DB68BB61FB695B000322C6
:100FF00002FA03F3DB43BA691340BB613B689A68AA
:10100000FB695B0002FA03F3BA691343BB617B68B7
:10101000BA69DA603B685B6803F00303022B23D1F3
:10102000FB69DA087B68083253F82230BB61FB6940
:1010300003F007039B000F2202FA03F3DB43BA69B4
:101040001340BB613B681A69FB6903F007039B000F
:1010500002FA03F3BA691343BB61FB69DA087B68E0
:101060000832B96943F822107B681B68BB61FB69D1
:101070005B00032202FA03F3DB43BA691340BB614E
:101080003B685B6803F00302FB695B0002FA03F351
:10109000BA691343BB617B68BA691A603B685B68D5
:1010A00003F44033002B00F0B4800023FB60604B5E
:1010B0005B6C5F4A43F4804353645D4B5B6C03F4A9
:1010C0008043FB60FB685B4AFB699B08023352F874
:1010D0002330BB61FB6903F003039B000F2202FA7C
:1010E00003F3DB43BA691340BB617B68524A934206
:1010F0002BD07B68514A934225D07B68504A93425B
:101100001FD07B684F4A934219D07B684E4A934266
:1011100013D07B684D4A93420DD07B684C4A934272
:1011200007D07B684B4A934201D107230EE0082386
:101130000CE006230AE0052308E0042306E003236D
:1011400004E0022302E0012300E00023FA6902F038
:10115000030292009340BA691343BB613549FB69AE
:101160009B080233BA6941F823203B4B9B68BB6163
:101170003B69DB43BA691340BB613B685B6803F4BE
:101180008013002B03D0BA693B691343BB61324A19
:10119000BB699360304BDB68BB613B69DB43BA6979
:1011A0001340BB613B685B6803F40013002B03D062
:1011B000BA693B691343BB61274ABB69D360264BBD
:1011C0005B68BB613B69DB43BA691340BB613B6849
:1011D0005B6803F40033002B03D0BA693B69134307
:1011E000BB611D4ABB6953601B4B1B68BB613B69FC
:1011F000DB43BA691340BB613B685B6803F480332F
:10120000002B03D0BA693B691343BB61124ABB6927
:101210001360FB690133FB61FB690F2B7FF690AE16
:1012200000BF00BF2437BD465DF8047B704700BF98
:101230000038024000380140000002400004024033
:1012400000080240000C024000100240001402405E
:1012500000180240001C0240003C014080B586B0EE
:1012600000AF78607B68002B01D1012367E27B68C7
:101270001B6803F00103002B75D0884B9B6803F0BB
:101280000C03042B0CD0854B9B6803F00C03082B3C
:1012900012D1824B5B6803F48003B3F5800F0BD14E
:1012A0007E4B1B6803F40033002B5BD07B685B68CC
:1012B000002B57D1012342E27B685B68B3F5803F86
:1012C00006D1764B1B68754A43F4803313601DE0EA
:1012D0007B685B68B3F5A02F0CD1704B1B686F4A1D
:1012E00043F4802313606D4B1B686C4A43F48033D6
:1012F00013600BE0694B1B68684A23F4803313606A
:10130000664B1B68654A23F4802313607B685B6827
:10131000002B13D0FFF7A2FC386108E0FFF79EFC1A
:1013200002463B69D31A642B01D9032307E25B4BC6
:101330001B6803F40033002BF0D014E0FFF78EFCA1
:10134000386108E0FFF78AFC02463B69D31A642B38
:1013500001D90323F3E1514B1B6803F40033002B45
:10136000F0D100E000BF7B681B6803F00203002B94
:1013700063D04A4B9B6803F00C03002B0BD0474B08
:101380009B6803F00C03082B1CD1444B5B6803F4EF
:101390008003002B16D1414B1B6803F00203002B86
:1013A00005D07B68DB68012B01D00123C7E13B4BF3
:1013B0001B6823F0F8027B681B69DB003749134385
:1013C0000B603AE07B68DB68002B20D0344B0122B5
:1013D0001A60FFF743FC386108E0FFF73FFC024664
:1013E0003B69D31A022B01D90323A8E12B4B1B68BD
:1013F00003F00203002BF0D0284B1B6823F0F80207
:101400007B681B69DB00254913430B6015E0244B07
:1014100000221A60FFF722FC386108E0FFF71EFC8B
:1014200002463B69D31A022B01D9032387E11B4BE8
:101430001B6803F00203002BF0D17B681B6803F0EC
:101440000803002B36D07B685B69002B16D0154B48
:1014500001221A60FFF702FC386108E0FFF7FEFB8B
:1014600002463B69D31A022B01D9032367E10B4BD8
:101470005B6F03F00203002BF0D01BE0094B00224E
:101480001A60FFF7EBFB38610EE0FFF7E7FB02465F
:101490003B69D31A022B07D9032350E100380240DD
:1014A00000004742800E4742884B5B6F03F0020307
:1014B000002BEAD17B681B6803F00403002B00F0CB
:1014C00097800023FB75814B1B6C03F08053002B2E
:1014D0000FD10023BB607D4B1B6C7C4A43F08053D3
:1014E00013647A4B1B6C03F08053BB60BB68012311
:1014F000FB75774B1B6803F48073002B18D1744B7A
:101500001B68734A43F480731360FFF7A7FB3861CD
:1015100008E0FFF7A3FB02463B69D31A022B01D96F
:1015200003230CE16A4B1B6803F48073002BF0D09B
:101530007B689B68012B06D1644B1B6F634A43F0A9
:10154000010313671CE07B689B68052B0CD15F4B84
:101550001B6F5E4A43F0040313675C4B1B6F5B4ACF
:1015600043F0010313670BE0584B1B6F574A23F0FE
:1015700001031367554B1B6F544A23F00403136791
:101580007B689B68002B15D0FFF768FB38610AE089
:10159000FFF764FB02463B69D31A41F2883293425B
:1015A00001D90323CBE0494B1B6F03F00203002B4F
:1015B000EED014E0FFF752FB38610AE0FFF74EFB74
:1015C00002463B69D31A41F28832934201D9032380
:1015D000B5E03E4B1B6F03F00203002BEED1FB7D09
:1015E000012B05D1394B1B6C384A23F0805313640F
:1015F0007B689B69002B00F0A180344B9B6803F053
:101600000C03082B5CD07B689B69022B41D1314BCA
:1016100000221A60FFF722FB386108E0FFF71EFB8B
:1016200002463B69D31A022B01D9032387E0274BDB
:101630001B6803F00073002BF0D17B68DA697B68CC
:101640001B6A1A437B685B6A9B011A437B689B6A2F
:101650005B08013B1B041A437B68DB6A1B061B49C2
:1016600013434B601B4B01221A60FFF7F7FA3861F6
:1016700008E0FFF7F3FA02463B69D31A022B01D9BF
:1016800003235CE0114B1B6803F00073002BF0D0C8
:1016900054E0104B00221A60FFF7E0FA386108E0CE
:1016A000FFF7DCFA02463B69D31A022B01D9032368
:1016B00045E0064B1B6803F00073002BF0D13DE0C2
:1016C0007B689B69012B07D1012338E00038024079
:1016D00000700040600047421B4B5B68FB607B680A
:1016E0009B69012B28D0FB6803F480027B68DB69CF
:1016F0009A4221D1FB6803F03F027B681B6A9A4241
:101700001AD1FA6847F6C07313407A68526A920198
:10171000934211D1FB6803F440327B689B6A5B08FB
:10172000013B1B049A4207D1FB6803F070627B689F
:10173000DB6A1B069A4201D0012300E00023184611
:101740001837BD4680BD00BF0038024080B584B068
:1017500000AF786039607B68002B01D10123CCE0B9
:10176000684B1B6803F007033A689A420CD9654B33
:101770003A68D2B21A70634B1B6803F007033A68E9
:101780009A4201D00123B8E07B681B6803F0020392
:10179000002B20D07B681B6803F00403002B05D0CE
:1017A000594B9B68584A43F4E05393607B681B682D
:1017B00003F00803002B05D0534B9B68524A43F4B7
:1017C00060439360504B9B6823F0F0027B689B68FA
:1017D0004D4913438B607B681B6803F00103002BAA
:1017E00044D07B685B68012B07D1474B1B6803F42F
:1017F0000033002B19D101237FE07B685B68022B4B
:1018000003D07B685B68032B07D13F4B1B6803F059
:101810000073002B09D101236FE03B4B1B6803F0E1
:101820000203002B01D1012367E0374B9B6823F0B3
:1018300003027B685B68344913438B60FFF70EFA41
:10184000F8600AE0FFF70AFA0246FB68D31A41F291
:101850008832934201D903234FE02B4B9B6803F05E
:101860000C027B685B689B009A42EBD1254B1B689E
:1018700003F007033A689A420CD2224B3A68D2B27C
:101880001A70204B1B6803F007033A689A4201D094
:10189000012332E07B681B6803F00403002B08D0AF
:1018A000194B9B6823F4E0527B68DB6816491343AD
:1018B0008B607B681B6803F00803002B09D0124B78
:1018C0009B6823F460427B681B69DB000E4913436D
:1018D0008B6000F021F802460B4B9B681B0903F05C
:1018E0000F030A49CB5C22FA03F3094A1360094B40
:1018F0001B681846FFF76EF9002318461037BD46DF
:1019000080BD00BF003C024000380240C4320008E5
:1019100000000020040000202DE9B04F94B000AF7B
:1019200000237B640023FB6400233B640023BB642F
:10193000794B9B6803F00C03082B0DD0082B00F2A9
:10194000E180002B02D0042B03D0DBE0734BBB649F
:10195000DBE0734BBB64D8E06F4B5B6803F03F0385
:101960007B646D4B5B6803F48003002B63D06A4B90
:101970005B689B090022BB63FA63BB6BC3F308037C
:101980003B6300237B63D7E90C4522462B464FF08F
:1019900000004FF00001590141EAD26150010246B6
:1019A0000B462146511A3961294663EB01037B61DD
:1019B0004FF000024FF00003D7E904AB59468B010A
:1019C000514643EA916351468A015146B2EB010800
:1019D000594663EB01094FF000024FF000034FEA54
:1019E000C90343EA58734FEAC80290469946234612
:1019F00018EB0303BB602B4649EB0303FB604FF07E
:101A000000024FF00003D7E9024529464B02214668
:101A100043EAD15321464A02104619467B6C002204
:101A2000BB62FA62D7E90A23FEF722FC02460B46A4
:101A30001346FB6458E0384B5B689B09002218464C
:101A40001146C0F308033B6200237B62D7E9088993
:101A500042464B464FF000004FF00001590141EA69
:101A6000D261500102460B464146B2EB010A49469B
:101A700063EB010B4FF000024FF000034FEA8B13B2
:101A800043EA9A634FEA8A12B2EB0A0463EB0B054E
:101A90004FF000024FF00003EB0043EA5473E20002
:101AA00014461D464346E3183B604B4645EB030393
:101AB0007B604FF000024FF00003D7E90045294654
:101AC0008B02214643EA915321468A021046194669
:101AD0007B6C0022BB61FA61D7E90623FEF7C8FBE5
:101AE00002460B461346FB640B4B5B681B0C03F072
:101AF000030301335B003B64FA6C3B6CB2FBF3F312
:101B0000BB6402E0054BBB6400BFBB6C184650379A
:101B1000BD46BDE8B08F00BF003802400024F4008D
:101B200000127A0080B582B000AF78607B68002B2D
:101B300001D101237BE07B685B6A002B08D17B68C5
:101B40005B68B3F5827F09D07B680022DA6105E02B
:101B50007B6800221A617B6800225A617B68002240
:101B60009A627B6893F85130DBB2002B06D17B6818
:101B7000002283F850207868FEF7A4FE7B680222DA
:101B800083F851207B681B681A687B681B6822F009
:101B900040021A607B685B6803F482727B689B6812
:101BA00003F404431A437B68DB6803F400631A43BD
:101BB0007B681B6903F002031A437B685B6903F0CF
:101BC00001031A437B689B6903F400731A437B6823
:101BD000DB6903F038031A437B681B6A03F0800358
:101BE00042EA03017B689B6A03F400527B681B682E
:101BF0000A431A607B689B691B0C03F004017B6835
:101C00005B6A03F010027B681B680A435A607B68BA
:101C10001B68DA697B681B6822F40062DA617B6802
:101C200000225A657B68012283F851200023184660
:101C30000837BD4680BD80B588B000AFF860B96098
:101C40003B601346FB80FFF709F8F861FB887B8354
:101C5000FB6893F85130DBB2012B01D002232AE15B
:101C6000BB68002B02D0FB88002B01D1012322E1AD
:101C7000FB6893F85030012B01D102231BE1FB6874
:101C8000012283F85020FB68032283F85120FB686F
:101C900000225A65FB68BA681A63FB68FA889A865C
:101CA000FB68FA88DA86FB6800229A63FB680022E8
:101CB0009A87FB680022DA87FB6800225A64FB6877
:101CC00000221A64FB689B68B3F5004F0FD1FB68D4
:101CD0001B681A68FB681B6822F040021A60FB68E8
:101CE0001B681A68FB681B6842F480421A60FB6834
:101CF0001B681B6803F04003402B07D0FB681B6880
:101D00001A68FB681B6842F040021A60FB68DB68D7
:101D1000B3F5006F52D1FB685B68002B02D07B8B60
:101D2000012B45D1FB681B6B1A88FB681B68DA60C6
:101D3000FB681B6B9A1CFB681A63FB68DB8E9BB20B
:101D4000013B9AB2FB68DA8632E0FB681B689B684D
:101D500003F00203022B12D1FB681B6B1A88FB688D
:101D60001B68DA60FB681B6B9A1CFB681A63FB68D4
:101D7000DB8E9BB2013B9AB2FB68DA8618E0FEF775
:101D80006DFF0246FB69D31A3A689A4203D83B6852
:101D9000B3F1FF3F02D13B68002B09D1FB68012260
:101DA00083F85120FB68002283F85020032382E04F
:101DB000FB68DB8E9BB2002BC7D153E0FB685B68EE
:101DC000002B02D07B8B012B47D1FB681A6BFB6881
:101DD0001B680C3312781A70FB681B6B5A1CFB686B
:101DE0001A63FB68DB8E9BB2013B9AB2FB68DA8612
:101DF00033E0FB681B689B6803F00203022B13D1DE
:101E0000FB681A6BFB681B680C3312781A70FB684E
:101E10001B6B5A1CFB681A63FB68DB8E9BB2013B91
:101E20009AB2FB68DA8618E0FEF718FF0246FB69F3
:101E3000D31A3A689A4203D83B68B3F1FF3F02D104
:101E40003B68002B09D1FB68012283F85120FB6815
:101E5000002283F8502003232DE0FB68DB8E9BB229
:101E6000002BC6D1FA693968F86800F06FFC0346A8
:101E7000002B02D0FB6820225A65FB689B68002B70
:101E80000AD100237B61FB681B68DB687B61FB6810
:101E90001B689B687B617B69FB68012283F851208A
:101EA000FB68002283F85020FB685B6D002B01D09B
:101EB000012300E0002318462037BD4680BD000006
:101EC00080B584B000AFF860B9601346FB80FB6852
:101ED00093F85130DBB2012B01D002237FE0BB68C5
:101EE000002B02D0FB88002B01D1012377E0FB6897
:101EF0009B68002B10D1FB685B68B3F5827F0BD128
:101F0000FB68042283F85120FB88BA68B968F86836
:101F100000F06EF8034662E0FB6893F85030012B46
:101F200001D102235BE0FB68012283F85020FB68AB
:101F3000042283F85120FB6800225A65FB68BA68C6
:101F40009A63FB68FA889A87FB68FA88DA87FB68E5
:101F500000221A63FB6800229A86FB680022DA8658
:101F6000FB6800225A64FB68DB68002B03D0FB6827
:101F70001D4A1A6402E0FB681C4A1A64FB689B68ED
:101F8000B3F5004F0FD1FB681B681A68FB681B682C
:101F900022F040021A60FB681B681A68FB681B6825
:101FA00022F480421A60FB681B681B6803F0400340
:101FB000402B07D0FB681B681A68FB681B6842F05F
:101FC00040021A60FB68002283F85020FB681B68FF
:101FD0005A68FB681B6842F060025A60002318468A
:101FE0001037BD4680BD00BF29250008DF2400084A
:101FF00080B487B000AFF860B9607A607B80FB681E
:1020000093F85130FB75FB685B683B61FB7D012BEE
:102010000CD03B69B3F5827F06D1FB689B68002B2F
:1020200002D1FB7D042B01D0022361E0BB68002BB1
:1020300005D07B68002B02D07B88002B01D10123C7
:1020400056E0FB6893F85030012B01D102234FE09A
:10205000FB68012283F85020FB6893F85130DBB213
:10206000042B03D0FB68052283F85120FB68002273
:102070005A65FB68BA681A63FB687A889A86FB68B7
:102080007A88DA86FB687A689A63FB687A889A8726
:10209000FB687A88DA87FB68DB68002B06D0FB6870
:1020A000164A1A64FB68164A5A6405E0FB68154A2A
:1020B0001A64FB68144A5A64FB681B681B6803F0C7
:1020C0004003402B07D0FB681B681A68FB681B683D
:1020D00042F040021A60FB68002283F85020FB683F
:1020E0001B685A68FB681B6842F0E0025A600023D4
:1020F00018461C37BD465DF8047B70472124000854
:10210000812400085D230008C123000880B588B041
:1021100000AF78607B681B685B68FB617B681B684D
:102120009B68BB61BB699B0903F00103002B0FD1C6
:10213000BB6903F00103002B0AD0FB699B0903F084
:102140000103002B04D07B681B6C78689847D7E0AC
:10215000BB695B0803F00103002B0AD0FB69DB09B4
:1021600003F00103002B04D07B685B6C7868984710
:10217000C6E0BB695B0903F00103002B0CD1BB690E
:102180009B0903F00103002B06D1BB691B0A03F076
:102190000103002B00F0B480FB695B0903F001032D
:1021A000002B00F0AD80BB699B0903F00103002BFD
:1021B00023D07B6893F85130DBB2032B11D07B68BE
:1021C0005B6D43F004027B685A6500237B617B688A
:1021D0001B68DB687B617B681B689B687B617B6934
:1021E0000BE000233B617B681B68DB683B617B681D
:1021F0001B689B683B613B6982E0BB695B0903F03C
:102200000103002B14D07B685B6D43F001027B68F7
:102210005A650023FB607B681B689B68FB607B68DA
:102220001B681A687B681B6822F040021A60FB6812
:10223000BB691B0A03F00103002B0CD07B685B6DAC
:1022400043F008027B685A650023BB607B681B680B
:102250009B68BB60BB687B685B6D002B4FD07B6865
:102260001B685A687B681B6822F0E0025A607B6832
:10227000012283F85120FB6903F00203002B04D1F3
:10228000FB6903F00103002B34D07B681B685A689C
:102290007B681B6822F003025A607B68DB6C002BB2
:1022A00011D07B68DB6C184A1A657B68DB6C1846BA
:1022B000FEF715FE0346002B05D07B685B6D43F0EF
:1022C00040027B685A657B689B6C002B16D07B684C
:1022D0009B6C0D4A1A657B689B6C1846FEF7FFFDE8
:1022E0000346002B0AD07B685B6D43F040027B689D
:1022F0005A6503E0786800F013F800E000BF00BF03
:102300002037BD4680BD00BF3523000880B483B0B0
:1023100000AF786000BF0C37BD465DF8047B7047A6
:1023200080B483B000AF786000BF0C37BD465DF865
:10233000047B704780B584B000AF78607B689B6B8E
:10234000FB60FB680022DA87FB680022DA86F86807
:10235000FFF7E6FF00BF1037BD4680BD80B582B0F5
:1023600000AF78607B681B6803F10C027B689B6B95
:102370001278D2B21A707B689B6B5A1C7B689A6386
:102380007B68DB8F9BB2013B9AB27B68DA877B6804
:10239000DB8F9BB2002B0FD17B681B685A687B6870
:1023A0001B6822F060025A607B68DB8E9BB2002BB8
:1023B00002D1786800F01EFA00BF0837BD4680BD24
:1023C00080B582B000AF78607B681A6B7B681B6851
:1023D0000C3312781A707B681B6B5A1C7B681A636B
:1023E0007B68DB8E9BB2013B9AB27B68DA867B68A6
:1023F000DB8E9BB2002B0FD17B681B685A687B6811
:102400001B6822F080025A607B68DB8F9BB2002B36
:1024100002D1786800F0EEF900BF0837BD4680BDF4
:1024200080B582B000AF78607B681B68DA687B6833
:102430009B6B92B21A807B689B6B9A1C7B689A6339
:102440007B68DB8F9BB2013B9AB27B68DA877B6843
:10245000DB8F9BB2002B0FD17B681B685A687B68AF
:102460001B6822F040025A607B68DB8E9BB2002B17
:1024700002D1786800F0BEF900BF0837BD4680BDC4
:1024800080B582B000AF78607B681B6B1A887B6870
:102490001B68DA607B681B6B9A1C7B681A637B681D
:1024A000DB8E9BB2013B9AB27B68DA867B68DB8E5F
:1024B0009BB2002B0FD17B681B685A687B681B6836
:1024C00022F080025A607B68DB8F9BB2002B02D126
:1024D000786800F08FF900BF0837BD4680BD80B531
:1024E00082B000AF78607B681B6803F10C027B68E8
:1024F0009B6B1278D2B21A707B689B6B5A1C7B68FC
:102500009A637B68DB8F9BB2013B9AB27B68DA8768
:102510007B68DB8F9BB2002B02D1786800F0DEF97C
:1025200000BF0837BD4680BD80B582B000AF78607F
:102530007B681B68DA687B689B6B92B21A807B6849
:102540009B6B9A1C7B689A637B68DB8F9BB2013B19
:102550009AB27B68DA877B68DB8F9BB2002B02D153
:10256000786800F0BBF900BF0837BD4680BD0000A9
:1025700080B588B000AFF860B9603B601346FB716E
:10258000FEF76CFB0246BB6A9B1A3A681344FB6178
:10259000FEF764FBB861394B1B685B011B0DFA69E0
:1025A00002FB03F37B6155E03B68B3F1FF3F51D081
:1025B000FEF754FB0246BB69D31AFA699A4202D964
:1025C000FB69002B3DD1FB681B685A68FB681B68E0
:1025D00022F0E0025A60FB685B68B3F5827F11D19C
:1025E000FB689B68B3F5004F04D0FB689B68B3F5AC
:1025F000806F07D1FB681B681A68FB681B6822F0B4
:1026000040021A60FB689B6AB3F5005F0FD1FB685C
:102610001B681A68FB681B6822F400521A60FB688A
:102620001B681A68FB681B6842F400521A60FB685A
:10263000012283F85120FB68002283F850200323F5
:1026400018E07B69002B02D10023FB6102E07B696B
:10265000013B7B61FB681B689A68BB681340BA68E2
:102660009A420CBF01230023DBB21A46FB799A423F
:102670009AD1002318462037BD4680BD00000020B7
:1026800080B586B002AFF860B9607A60FB685B68BD
:10269000B3F5827F11D1FB689B68B3F5004F04D07E
:1026A000FB689B68B3F5806F07D1FB681B681A68ED
:1026B000FB681B6822F040021A60FB685B68B3F598
:1026C000827F2AD1FB689B68B3F5806F12D07B684C
:1026D0000093BB6800228021F868FFF749FF03469A
:1026E000002B2DD0FB685B6D43F02002FB685A6520
:1026F000032326E07B680093BB6800220121F86871
:10270000FFF736FF0346002B1AD0FB685B6D43F0E2
:102710002002FB685A65032313E07B680093BB68C3
:1027200000220121F868FFF723FF0346002B07D0A2
:10273000FB685B6D43F02002FB685A65032300E0F1
:10274000002318461037BD4680BD000080B588B014
:1027500002AFF860B9607A607B680093BB680122C1
:102760000221F868FFF704FF0346002B07D0FB683F
:102770005B6D43F02002FB685A65032332E01B4B7C
:102780001B681B4AA2FB03235B0D4FF47A7202FB0A
:1027900003F37B61FB685B68B3F5827F12D17B68D2
:1027A0000093BB6800228021F868FFF7E1FE034632
:1027B000002B16D0FB685B6D43F02002FB685A6566
:1027C00003230FE07B69002B0AD07B69013B7B610F
:1027D000FB681B689B6803F08003802BF2D000E04D
:1027E00000BF002318461837BD4680BD00000020FA
:1027F000819F5E1680B586B000AF7860354B1B6850
:10280000354AA2FB03235B0A642202FB03F33B610C
:10281000FEF724FA78617B681B685A687B681B683E
:1028200022F020025A603B69002B06D17B685B6D69
:1028300043F020027B685A6509E03B69013B3B613C
:102840007B681B689B6803F00203002BEBD07A695E
:1028500064217868FFF77AFF0346002B05D07B6878
:102860005B6D43F020027B685A657B689B68002B98
:102870000AD10023FB607B681B68DB68FB607B6818
:102880001B689B68FB60FB687B685B6D002B15D148
:102890007B6893F85130DBB2042B07D17B680122AF
:1028A00083F851207868FDF779FE0EE07B680122FD
:1028B00083F851207868FFF729FD06E07B68012244
:1028C00083F851207868FFF72BFD00BF1837BD460D
:1028D00080BD00BF00000020F119760580B584B0EE
:1028E00000AF78607B681B685A687B681B6822F0C1
:1028F00060025A60FEF7B2F903461A46642178680E
:10290000FFF7BEFE0346002B05D07B685B6D43F0EE
:1029100020027B685A657B689B68002B0AD10023E4
:10292000FB607B681B68DB68FB607B681B689B68DF
:10293000FB60FB687B68012283F851207B685B6D3C
:10294000002B03D17868FDF729FE02E07868FFF7D5
:10295000E7FC00BF1037BD4680BD00000EB410B5C7
:102960009DB01FAB029006906FF000410A4807919E
:1029700004910A4953F8042B0591002402A9006828
:1029800001931B9400F094F9029B1C701DB0BDE8EC
:10299000104003B0704700BF0C0000200802FFFF8A
:1029A00002440346934200D1704703F8011BF9E744
:1029B000014B1868704700BF0C00002070B50D4D2A
:1029C0000D4C641BA4100026A64209D10B4D0C4CE3
:1029D00000F064FC641BA4100026A64205D170BD63
:1029E00055F8043B98470136EEE755F8043B984705
:1029F0000136F2E7103300081033000810330008E6
:102A0000143300087047704738B50546002941D097
:102A100051F8043C0C1F002BB8BFE41800F0E0F89C
:102A20001D4A136833B9636014602846BDE8384016
:102A300000F0DCB8A34208D9206821188B4201BFFE
:102A400019685B6809182160EDE71A465B680BB1ED
:102A5000A342FAD911685018A0420BD12068014452
:102A6000501883421160E0D118685B6853600844D5
:102A70001060DAE702D90C232B60D6E72068211812
:102A80008B4204BF19685B68636004BF091821604A
:102A90005460CAE738BD00BFA002002070B50F4ED9
:102AA0000C463168054611B900F0A4FB30602146A0
:102AB000284600F09FFB431C03D14FF0FF34204613
:102AC00070BDC41C24F00304A042F8D0211A28468B
:102AD00000F090FB0130F2D1EFE700BF9C02002034
:102AE0002DE9F843CD1C25F0030508350C2D38BF22
:102AF0000C25002D064601DBA94204D90C233360C6
:102B00000020BDE8F883DFF8D48000F069F8D8F839
:102B100000301C4644BB29463046FFF7BFFF431C2C
:102B2000044658D1D8F800402746002F43D1002C46
:102B30004BD023683946304604EB030900F05AFBBA
:102B4000814542D121686D1A29463046FFF7A6FF1C
:102B500001303AD023682B442360D8F800305A68FB
:102B600062BBC8F800700FE02268521B20D40B2A09
:102B700017D96119A342256018BF5960636808BF5F
:102B8000C8F8001062514B60304600F02FF804F195
:102B90000B00231D20F00700C21A1CBF1B1AA350F4
:102BA000AFE76268A3420CBFC8F800205A60EBE7A9
:102BB00023466468AEE73C467F68B6E71A465B6822
:102BC000A342FBD100235360DEE70C233360304681
:102BD00000F00CF894E70560D6E700BFA0020020E3
:102BE0000148FFF70FBF00BF980200200148FFF720
:102BF0000ABF00BF980200202DE9F0478E681F46EB
:102C0000BE420B6882460C4690462DD8B1F90C2086
:102C100012F4906F26D06569096905EB4505A3EBB1
:102C2000010905EBD5757B1C4B446D109D4238BFE7
:102C30001D46530527D52946FFF752FF064660B3C8
:102C400021694A4600F0E6FAA38923F4906343F031
:102C50008003A381266165614E44A5EB09052660CA
:102C6000A5603E46BE4200D93E46206832464146F7
:102C700000F0A6FAA3689B1BA3602368334423607B
:102C80000020BDE8F0872A4600F0D2FA0646002868
:102C9000E0D121695046FFF7B7FE0C23CAF8003097
:102CA000A38943F04003A3814FF0FF30E9E7000020
:102CB0002DE9F04F98468B891B069DB007460D46BF
:102CC000144610D50B6973B94021FFF709FF28603E
:102CD000286130B90C233B604FF0FF301DB0BDE8D8
:102CE000F08F40236B610023099320238DF8293056
:102CF000CDF80C803023DFF89C818DF82A304FF01E
:102D0000010923469A4613F8012B0AB1252AF9D165
:102D1000BAEB040B0BD05B46224629463846FFF738
:102D20006BFF013000F0A780099A5A4409929AF883
:102D30000030002B00F09F8000234FF0FF32CDE9E0
:102D400005230AF1010A049307938DF853301A936F
:102D50005446052214F8011B4E48FDF739FA049A2F
:102D6000D8B9D00644BF20238DF85330110744BF93
:102D70002B238DF853309AF800302A2B15D0079A60
:102D8000544600204FF00A0C214611F8013B303B1D
:102D9000092B4BD9B0B1079214E0A0EB080309FA54
:102DA00003F313430493A246D2E7039B191D1B6848
:102DB0000391002BBBBF5B4242F0020207930793D3
:102DC000B8BF049223782E2B0AD163782A2B32D1F4
:102DD000039B1A1D1B68039243EAE37302340593B5
:102DE000DFF8C0A0217803225046FDF7F1F938B191
:102DF000049BA0EB0A004022824013430134049359
:102E000014F8011B24488DF828100622FDF7E0F97C
:102E1000002836D0214B1BBB039B073323F007034D
:102E200008330393099B334409936AE70CFB02328E
:102E30000C460120A8E700230134059319464FF002
:102E40000A0C204610F8012B303A092A03D9002B2E
:102E5000C6D00591C4E70CFB012104460123F0E72D
:102E600003AB00932A460E4B04A93846AFF300800B
:102E7000421C0646D6D1AB895B063FF52DAF0998BB
:102E80002CE703AB00932A46054B04A9384600F013
:102E900079F8EDE7D4320008DE32000800000000C7
:102EA000F92B0008DA3200082DE9F047164698465B
:102EB0008A680B69DDF820909342B8BF13463360EF
:102EC00091F8432007460C460AB10133336023686A
:102ED000990642BF336802333360256815F0060552
:102EE00006D104F1190AE36832689B1AAB4226DC6A
:102EF00094F843302268003B18BF012392062BD47C
:102F000004F1430241463846C84701301ED02368C9
:102F1000226903F00603042B02BFE5683368ED1A4B
:102F2000A3680CBF25EAE57500259342C4BF9B1A30
:102F3000ED1800261A34B5421AD1002008E001230A
:102F4000524641463846C847013003D14FF0FF3062
:102F5000BDE8F0870135C6E7E1185A1C302081F83A
:102F60004300224494F8451082F843100233C7E727
:102F70000123224641463846C8470130E6D0013693
:102F8000D9E700002DE9FF470F7E0C9E782F914670
:102F900080460C469A4601F1430207D8622F0AD8B0
:102FA000002F00F0D180582F00F0B88004F14206C5
:102FB00084F842703AE0A7F16303152BF6D801A11B
:102FC00051F823F01D30000831300008AD2F000803
:102FD000AD2F0008AD2F0008AD2F000831300008DC
:102FE000AD2F0008AD2F0008AD2F0008AD2F000851
:102FF0002F3100085B300008E9300008AD2F0008D1
:10300000AD2F000851310008AD2F00085B300008DB
:10301000AD2F0008AD2F0008F130000833681A1DED
:103020001B68326004F1420684F8423001239CE0C0
:1030300033682068191D3160060601D51D6803E05C
:103040004506FBD5B3F90050002D03DA2D236D4260
:1030500084F8433058480A2311E021683368080691
:1030600053F8045B02D4490648BFADB26F2F5248F3
:10307000336014BF0A230823002184F843106668D4
:10308000A660002E05DB21682E4321F0040121609B
:103090004BD01646B5FBF3F103FB1157C75D06F89D
:1030A000017D2F46BB420D46F4D9082B0BD1236876
:1030B000DF0708D5236961689942DEBF302306F82F
:1030C000013C06F1FF36921B2261CDF800A04B4671
:1030D00003AA21464046FFF7E7FE01304AD14FF0F0
:1030E000FF3004B0BDE8F087236843F0200323607D
:1030F0003248782784F84570236831681F0651F8F4
:10310000045B02D45F0648BFADB23160D90744BF4B
:1031100043F0200323601DB11023ADE72648E9E703
:10312000236823F020032360F6E71646BDE73368E3
:1031300025686169181D30602E061B6801D519606D
:1031400002E06806FBD51980002323611646BCE720
:1031500033681A1D32601E68626800213046FDF730
:1031600037F808B1801B606063682361002384F82E
:103170004330AAE72369324649464046D0470130EA
:10318000ADD023689B0713D4E068039B9842B8BF77
:103190001846A6E70123324649464046D04701304B
:1031A0009DD00135E36803995B1AAB42F2DCEBE793
:1031B000002504F11906F5E7E5320008F6320008AB
:1031C000884210B501EB020402D98442234607D895
:1031D000431EA14208D011F8012B03F8012FF8E794
:1031E000024401468A4200D110BD13F8014D02F895
:1031F000014DF7E738B5064D0023044608462B601D
:10320000FDF754FC431C02D12B6803B1236038BD89
:10321000940200200A44914200F1FF3300D170472C
:1032200010B511F8014B03F8014F9142F9D110BDCF
:103230002DE9F041074614460D4621B9BDE8F0419D
:103240001146FFF74DBC2AB9FFF7DEFB254628469D
:10325000BDE8F08100F01AF88442064602D8B4EBCB
:10326000500FF4D821463846FFF73AFC804608B99B
:103270004546ECE7B4422246294628BF3246FFF7CE
:10328000C9FF29463846FFF7BFFBF1E751F8043C78
:10329000181F002BBCBF0B58C0187047F8B500BFF3
:1032A000F8BC08BC9E467047F8B500BFF8BC08BC27
:0432B0009E4670477F
:1032B400477569206C616E207468753A2025640036
:1032C40000000000000000000102030406070809D2
:1032D400232D302B2000686C4C00656667454647FB
:1032E400003031323334353637383941424344457E
:1032F40046003031323334353637383961626364ED
:0433040065660000FA
:08330800C8CEFF7F01000000A8
:04331000B5010008FB
:04331400910100081B
:103318000024F4001000000001000000100000204C
:10332800000000005C010020C40100202C020020E5
:103338000000000000000000000000000000000085
:103348000000000000000000000000000000000075
:103358000000000000000000000000000000000065
:0C33680000000000000000000000000059
:0400000508000B3DA7
:00000001FF
